S0120000526F75746572436172642E7372656317
S11300006DC000008AC0000088C0000086C00000E7
S113001084C0000082C0000080C000007EC00000D8
S11300207CC000007AC0000078C0000076C00000E8
S113003074C0000072C0000070C000006EC00000F8
S11300406CC000000C94422014C3000066C0000081
S113005064C00000DFC2000060C200005EC0000097
S11300605CC000005AC0000058C0000056C0000028
S113007054C0000052C0000050C000004EC0000038
S11300809AC2000006C200008CC2000046C00000F4
S113009044C000006111171119111B111D111F110A
S11300A067111511691163112111231165113211A1
S11300B0361138113A113C116B11301134113E11C3
S11300C04011421198117B117D117F11811183110F
S11300D09C1179119E119A118511871111241FBE4B
S11300E0CFEFD0E1DEBFCDBF14E0A0E0B1E0E0E2AD
S11300F0F4E400E00BBF02C007900D92AE38B107E4
S1130100D9F72EE0AEE8B4E001C01D92A73AB207D9
S1130110E1F70E94A1110C940E2272CFCF92DF92CC
S1130120EF92FF920F931F93CF93DF93EC016B0138
S11301307A01649F8001659F100D749F100D112436
S1130140C8010E94A82099838883000F111F080FFB
S1130150191F1B830A83DD82CC821F821E82F986CB
S1130160E8869B878A879D878C87DF91CF911F9133
S11301700F91FF90EF90DF90CF900895CF93DF938E
S1130180EC012E813F818C819D8128173907F1F084
S1130190488559858A859B850E94D52188859985BE
S11301A0880F991F2A853B85820F931F9B878A8717
S11301B02A813B818217930721F4888199819B8747
S11301C08A878E819F8101969F838E83DF91CF9151
S11301D00895CF93DF93EC018E819F81892BF9F0F1
S11301E0CB016C857D85488559850E94D5218885FC
S11301F09985880F991F2C853D85820F931F9D87B4
S11302008C872A813B818217930721F48881998105
S11302109D878C878E819F8101979F838E83DF9139
S1130220CF910895FC01CB01648575854085518586
S11302300C94D5210895FC01868197810895611558
S113024026E972078105910501F130F461157B44BB
S11302508105910509F127C0611521EE7207810519
S1130260910561F06115724C81409105E1F480E1E2
S113027090E09093C5008093C4001BC082E290E09C
S11302809093C5008093C40014C083E390E09093DE
S1130290C5008093C4000DC087E690E09093C5002C
S11302A08093C40006C08FEC90E09093C5008093C7
S11302B0C40082E08093C0008EE08093C20088E98D
S11302C08093C10041E050E062E370E08AEC94E086
S11302D025DF41E050E062E370E086EE94E01ECF5B
S11302E00895611526E972078105910501F130F43D
S11302F061157B448105910509F127C0611521EE43
S113030072078105910561F06115724C8140910578
S1130310E1F480E190E09093CD008093CC001BC089
S113032082E290E09093CD008093CC0014C083E3EC
S113033090E09093CD008093CC000DC087E690E0D0
S11303409093CD008093CC0006C08FEC90E0909306
S1130350CD008093CC0082E08093C80086E0809337
S1130360CA0088E98093C90041E050E062E370E08C
S11303708BEB94E0D3DE41E050E062E370E088ED83
S113038094E0CCCE08950F931F93CF93DF931F92E5
S1130390CDB7DEB7898301EC10E0F80180818F7D51
S11303A08083BE016F5F7F4F8AEC94E0E7DEF80143
S11303B08081806280830F90DF91CF911F910F9194
S11303C008950F931F93CF93DF931F92CDB7DEB79A
S11303D0898309EC10E0F80180818F7D8083BE0160
S11303E06F5F7F4F8BEB94E0C9DEF8018081806200
S11303F080830F90DF91CF911F910F910895CF9338
S1130400DF931F92CDB7DEB7BE016F5F7F4F88EDDC
S113041094E0DFDE89810F90DF91CF910895CF932F
S1130420DF931F92CDB7DEB7BE016F5F7F4F86EEBD
S113043094E0CFDE89810F90DF91CF910895CF931F
S1130440DF931F92CDB7DEB7BE016F5F7F4F86EE9D
S113045094E0E8DE89810F90DF91CF910895CF93E6
S1130460DF931F92CDB7DEB7BE016F5F7F4F88ED7C
S113047094E0D8DE89810F90DF91CF910895809127
S1130480EC049091ED0408958091DE049091DF04D2
S113049008951F920F920FB60F9211240BB60F926C
S11304A02F933F934F935F936F937F938F939F9378
S11304B0AF93BF93EF93FF93CF93DF931F92CDB787
S11304C0DEB78091C1049091C2041816190654F441
S11304D0BE016F5F7F4F8BEB94E07BDE898180935D
S11304E0CE0005C0E9ECF0E080818F7D80830F9021
S11304F0DF91CF91FF91EF91BF91AF919F918F9138
S11305007F916F915F914F913F912F910F900BBE0F
S11305100F900FBE0F901F9018951F920F920FB659
S11305200F9211240BB60F922F933F934F935F9327
S11305306F937F938F939F93AF93BF93EF93FF93A7
S1130540CF93DF931F92CDB7DEB78091D004909103
S1130550D1041816190654F4BE016F5F7F4F8AEC5C
S113056094E037DE89818093C60005C0E1ECF0E0B9
S113057080818F7D80830F90DF91CF91FF91EF91E8
S1130580BF91AF919F918F917F916F915F914F91A7
S11305903F912F910F900BBE0F900FBE0F901F90A5
S11305A018951F920F920FB60F9211240F900FBE41
S11305B00F901F9018951F920F920FB60F9211244F
S11305C00BB60F922F933F934F935F936F937F9349
S11305D08F939F93AF93BF93EF93FF938091CE003C
S11305E08093C90469EC74E088ED94E0C7DDFF9161
S11305F0EF91BF91AF919F918F917F916F915F9197
S11306004F913F912F910F900BBE0F900FBE0F9003
S11306101F9018951F920F920FB60F9211240BB6CC
S11306200F922F933F934F935F936F937F938F9387
S11306309F93AF93BF93EF93FF938091C6008093F2
S1130640F40464EF74E086EE94E098DDFF91EF919A
S1130650BF91AF919F918F917F916F915F914F91D6
S11306603F912F910F900BBE0F900FBE0F901F90D4
S113067018951F920F920FB60F9211240BB60F927A
S11306802F933F934F935F936F937F938F939F9396
S1130690AF93BF93CF93EF93FF93EDEEF0E0C08160
S11306A08091EC00682F70E0807F80837295629562
S11306B06F7067277F7067278091EE008F7DC1F58B
S11306C02091F2008091F300E9E9F4E090E0880FD2
S11306D0991F880F991F880F991F229526952770B7
S11306E0822B918380838091EF008F70828390E0CE
S11306F0009759F0ECE9F4E084569B4FAAEFB0E080
S11307002C912193E817F907D9F71092EE0080E8AD
S11307108093EF00FB01EE0FFF1FEA50FB4F0190A7
S1130720F081E02D89E994E00995C093ED00D8C0EB
S11307308091EE008F7B09F057C0FB01EE0FFF1F85
S1130740EA50FB4F0190F081E02D89E994E009958E
S113075080919B04882309F440C0E9E9F4E0808196
S1130760918196958795969587959695879580938B
S1130770F30080818295880F807E8093F20010922E
S1130780F1001092F0008281893019F081110DC0BE
S11307901CC0ECE9F4E024EA34E0AAEFB0E0819173
S11307A08C93E217F307D9F710C080E029E934E00D
S11307B0AAEFB0E0E82FF0E0E756FB4F93819C935B
S11307C08F5FF90192818917A8F31092EE0080914E
S11307D09B04805C8093EF0004C01092EE001092A2
S11307E0EF00C093ED007CC08091EE0090E08F7725
S11307F0892BC1F52091F2008091F300E9E9F4E03E
S113080090E0880F991F880F991F880F991F2295D0
S113081026952770822B918380838091EF008F70BF
S1130820828390E0009759F0ECE9F4E084569B4F02
S1130830AAEFB0E02C912193E817F907D9F71092A9
S1130840EE0080E88093EF00FB01EE0FFF1FEA50FB
S1130850FB4F0190F081E02D89E994E00995C09364
S1130860ED003EC08091EE008F75C1F52091F2003D
S11308708091F300E9E9F4E090E0880F991F880F74
S1130880991F880F991F229526952770822B918393
S113089080838091EF008F70828390E0009759F0FD
S11308A0ECE9F4E084569B4FAAEFB0E02C9121933D
S11308B0E817F907D9F71092EE0080E88093EF006B
S11308C0FB01EE0FFF1FEA50FB4F0190F081E02D7A
S11308D089E994E00995C093ED0002C08091EE008F
S11308E0FF91EF91CF91BF91AF919F918F917F91A4
S11308F06F915F914F913F912F910F900BBE0F908D
S11309000FBE0F901F901895CF93DF939091EF0037
S1130910907C21F09091EE0096FF73C0C82FE82FD1
S1130920F0E0EE0FFF1FEA50FB4F0190F081E02D45
S1130930682F8EE894E00995C295C07FC093ED00BE
S113094080919004882309F45EC01092EE00109206
S1130950EF008F3FC1F1EEE8F4E08081918196953C
S1130960879596958795969587958093F3008081D2
S11309708295880F807E8093F2001092F10010928D
S1130980F0008281893019F081110DC033C0E1E992
S1130990F4E029E934E0AAEFB0E081918C93E21706
S11309A0F307D9F727C080E0CEE8D4E0AAEFB0E09F
S11309B0E82FF0E0E257FB4F93819C938F5F9A817D
S11309C08917B0F317C0EEE8F4E080819181969521
S11309D0879596958795969587958093F300808162
S11309E08295880F807E8093F2001092F10084E05B
S11309F08093F00080919004805C8093EF0081E00C
S1130A0003C080E001C080E0DF91CF910895CF93CF
S1130A10DF93FB01208131812115384008F098953E
S1130A209281993008F098958F3008F098958295C6
S1130A30807F8093ED008091EF00807C21F0809195
S1130A40EE0086FF49C01092EE001092EF00828102
S1130A508F3F39F1808191819695879596958795F9
S1130A60969587958093F30080818295880F807E88
S1130A708093F2001092F1001092F000828188239A
S1130A8029F1DF01139620E030E0CAEFD0E08D9128
S1130A9088832F5F3F4F828190E028173907B8F38E
S1130AA015C08081918196958795969587959695A1
S1130AB087958093F30080818295880F807E809350
S1130AC0F2001092F10084E08093F0008281805C57
S1130AD08093EF0081E001C080E0DF91CF91089521
S1130AE08F3008F06DC0E82FF0E0EE0FFF1FEA50E2
S1130AF0FB4F31832083982F9295907F9093ED0044
S1130B00232BD9F41092EE001092EF0021E030E094
S1130B10A90102C0440F551F8A95E2F7CA01EEED00
S1130B20F0E02081809582238083EFEDF0E08081E6
S1130B3090958923808380E008959091EF00907CC4
S1130B4009F040C01092EE00EFEEF0E01082109237
S1130B50EC009B0136952795369527953695279574
S1130B602093F3006295660F607E6093F2009A0111
S1130B703695279536952795369527952093F70032
S1130B804295440F407E4093F6001092F500109277
S1130B90F40090E8908321E030E0A90102C0440F02
S1130BA0551F8A95E2F7CA01EEEDF0E02081822B11
S1130BB08083EFEDF0E08081892B808380E00895CD
S1130BC081E0089581E008958F3008F049C0E82F4E
S1130BD0F0E0EE0FFF1FEA50FB4F31832083982F84
S1130BE09295907F9093ED00232BD9F41092EE0010
S1130BF01092EF0021E030E0A90102C0440F551F1C
S1130C008A95E2F7CA01EEEDF0E020818095822317
S1130C108083EFEDF0E0808190958923808380E0EC
S1130C2008959091EF00907CE9F41092EE001092F8
S1130C30EF001092EC0021E030E0A90102C0440F63
S1130C40551F8A95E2F7CA01EEEDF0E02081822B70
S1130C508083EFEDF0E08081892B808381E008952B
S1130C6081E0089580E00895CF93DF9382E080933C
S1130C70E2008CE08093E30087E38093E40080E06B
S1130C80CDEED0E0AEEEB0E0EFEEF0E0982F92952E
S1130C90907F98831C9210828F5F8F30B9F7E8EDB4
S1130CA0F0E080818260808380EB8093DB00DF91C1
S1130CB0CF910895FC01EC5AFF4F208131812532F8
S1130CC031058CF534970190F081E02DDF01AA0FF6
S1130CD0BB1FA80FB91F6D937C93BF016F5F7F4F3C
S1130CE068327105D0F4660F771FDC01A60FB71FB9
S1130CF04D935C933296E832F10510F0E0E0F0E0B9
S1130D00DC01A05BBF4FED93FC93FC01EC5AFF4F59
S1130D102E5F3F4F318320830895FC01518340832C
S1130D20E1E0F0E0EDCF0895CF93DF93FC018091F3
S1130D30AA049091AB04019709F074C0EF01828179
S1130D408850823008F046C0638170E0762F6627B1
S1130D508481680F711D8091E9079091EA076817F3
S1130D60790780F4458150E0542F44278681480F49
S1130D70511D83E997E09EDF81E090E09093A70402
S1130D808093A6046F8170E0762F66278885680FAC
S1130D90711D8091E9079091EA076817790780F43B
S1130DA0498550E0542F44278A85480F511D83E913
S1130DB097E080DF81E090E09093A7048093A604FD
S1130DC0488159814F71552760E070E083E997E0CD
S1130DD071DFACC0638170E0762F66278481680F71
S1130DE0711D8091E9079091EA076817790780F4EB
S1130DF0458150E0542F44278681480F511D83E9D3
S1130E0097E058DF81E090E09093A7048093A604D4
S1130E10488159814F71552760E070E083E997E07C
S1130E2049DF84C0A0913B07B0913C078081918148
S1130E308F71992711969C938E938281885082306A
S1130E4008F04EC0838190E0982F88272481820F78
S1130E50911D2091E9073091EA0782179307C0F4A6
S1130E60880F991FA0913B07B0913C07A80FB91FA9
S1130E70858190E0982F88272681820F911D1196F5
S1130E809C938E9381E090E09093A7048093A604B2
S1130E90878190E0982F88272085820F911D2091CB
S1130EA0E9073091EA078217930708F03FC0880FDB
S1130EB0991FA0913B07B0913C07A80FB91F8185EA
S1130EC090E0982F88272285820F911D11969C937C
S1130ED08E9381E090E09093A7048093A60426C0AB
S1130EE0838190E0982F88272481820F911D20917F
S1130EF0E9073091EA0782179307C0F4880F991F16
S1130F00A0913B07B0913C07A80FB91F858190E0E1
S1130F10982F88272681820F911D11969C938E937A
S1130F2081E090E09093A7048093A604DF91CF9191
S1130F300895AB01BC0185EE96E0BCCE08950F93F5
S1130F401F93CF93DF93FC01E854FF4FA081B1813D
S1130F50A735B1050CF050C034970190F081E02D15
S1130F60EF01CC0FDD1FC80FD91F79836883BF0140
S1130F706F5F7F4F6A35710588F5EC01CC54DF4F04
S1130F807983688324968D010F5F1F4F198308832B
S1130F90660F771FEC01C60FD71F59834883AF0133
S1130FA04E5F5F4F4A35510508F5440F551FEC015C
S1130FB0C40FD51F398328833396EA35F10510F021
S1130FC0E0E0F0E0EC01CC54DF4FF983E883FC016E
S1130FD0E854FF4F1396B183A0830EC0FC015183E4
S1130FE0408333832283E2E0F0E0ECCFFC013183E1
S1130FF02083E1E0F0E0E6CFDF91CF911F910F91E4
S11310000895FC01EC5AFF4F4081518114161506D6
S1131010E4F4329720813181F901EE0FFF1FE80FCC
S1131020F91F608171812F5F3F4F2832310510F025
S113103020E030E0FC01EE5AFF4F318320833296EA
S1131040415051095183408302C060E070E0CB01FC
S11310500895AF92BF92CF92DF92EF92FF920F93D7
S11310601F93CF93DF936C01A090CC05B090CD0576
S1131070E0903907F0903A07F594E7941E141F04A2
S11310809CF4C0E0D0E085EE96E0BBDF8C0185EEF9
S113109096E0B7DF9C01A801B60184E195E04FDF3B
S11310A02196CE15DF0579F782E0A816B10410F475
S11310B08DE02ADCDF91CF911F910F91FF90EF908B
S11310C0DF90CF90BF90AF900895FC01E854FF4F9C
S11310D04081518114161506E4F432972081318140
S11310E0F901EE0FFF1FE80FF91F608171812F5F77
S11310F03F4F2A35310510F020E030E0FC01EA547E
S1131100FF4F3183208332964150510951834083EC
S113111002C060E070E0CB010895FC01E854FF4F89
S113112020813181121613065CF432970190F0810C
S1131130E02DEE0FFF1FE80FF91F808191810895C4
S113114080E090E00895FC01E854FF4F1182108282
S1131150349711821082329611821082672B29F003
S113116024EBFC0111922A95E9F7089590933C072A
S113117080933B074093E4067093EA076093E90782
S113118080E4489FB001112424E936E040EE57E0A2
S113119084E0A6DC882309F0989522EF38E04FEF2D
S11311A057E06FEF77E08DE00FDD88EA94E00E946E
S11311B0CF1E10923A0710923907109236071092F8
S11311C03507109238071092370760E070E084E129
S11311D095E0B9CF089544E064E170E080ED96E0D5
S11311E0C5CF0895EF92FF920F931F93CF93DF9390
S11311F02091CC053091CD052115310509F4AAC003
S1131200EC012730310508F43FC084E195E05DDF4F
S11312108C019C01002436952795079436952795D3
S11312200794322F202D2C5F3F4F3983288384E18C
S113123095E04BDF9B838C8384E195E046DF9D83BF
S11312408E8384E195E069DF7C0180179107C9F4FE
S113125084E195E03ADF84E195E037DF9F83888776
S113126084E195E032DF99878A8784E195E055DF50
S1131270E816F90619F488E08A8372C089E08A8343
S11312806FC084E08A836CC026303105A9F584E1FF
S113129095E01BDF8C019C0100243695279507946B
S11312A0369527950794322F202D2C5F3F4F398395
S11312B0288384E195E009DF9B838C8384E195E0B6
S11312C004DF9D838E8384E195E027DF80179107F7
S11312D081F484E195E0F9DE84E195E0F6DE9F8314
S11312E0888784E195E0F1DE99878A8789E08A839B
S11312F037C084E08A8334C023303105E1F484E1CB
S113130095E0E3DE00249695879507949695879556
S11313100794982F802D04969983888384E08A8388
S113132084E195E0D2DE9B838C8384E195E0CDDE7D
S11313309D838E8315C08091A4049091A504019689
S11313409093A5048093A40461E070E084E195E0A7
S1131350FADE06C021E030E0FC01318320831282F2
S1131360DF91CF911F910F91FF90EF9008952CD2B0
S1131370FC01848195819093840B8093830B8281FB
S113138093819093820D8093810D868197819093B0
S11313902E0D80932D0D808591859093300D809333
S11313A02F0D828593859093B1048093B004248596
S11313B035853093AF042093AE04892BA1F183E0EB
S11313C08DD764E070E080E02FD36091B004709119
S11313D0B10481E029D36091AE047091AF0482E03E
S11313E023D385E042D360EA76E881E090E00E946E
S11313F07C161092B1041092B0041092AF041092B3
S1131400AE0464E070E080E00FD36091B0047091AA
S1131410B10481E009D36091AE047091AF0482E01D
S113142003D385E022C30895CF938091AC0488232D
S1131430E1F08FEE97E00E94E01F8823B1F081E095
S11314404DD764E070E080E0EFD26091B004709119
S1131450B10481E0E9D26091AE047091AF0482E0FE
S1131460E3D285E002D31092AC048FEF97E00E94A0
S1131470E01F811108C00BC181E030D782B18058D0
S113148082B9C1E001C0C0E005D48111F5CFCC23FD
S113149009F4F9C06CDF8CE021D78091B0049091FD
S11314A0B104892B09F0DFC01092AD048091810D45
S11314B09091820D99231CF49195819591090D9732
S11314C024F061E08BE0A3D607C060E08BE09FD6F8
S11314D01092820D1092810D8091830B9091840B58
S11314E099231CF49195819591090D9724F061E05D
S11314F08AE08DD607C060E08AE089D61092840B1A
S11315001092830B80912D0D90912E0D99231CF434
S11315109195819591090D9724F061E08CE077D63F
S113152007C060E08CE073D61092840B1092830B9A
S11315302091E2083091E3088091810D9091820D11
S11315402817390731F481E79BE00E94E01F8823C4
S1131550A9F08091810D9091820D28E2AC01249F25
S1131560C001259F900D11240E94451E8091810D7C
S11315709091820D9093E3088093E2082091630D8B
S11315803091640D8091830B9091840B2817390757
S113159031F481E69BE00E94E01F8823A1F02091B2
S11315A0830B3091840B48ED4203C001439F900D9F
S11315B011240E94DE138091830B9091840B9093ED
S11315C0640D8093630D80912F0D9091300D2091C7
S11315D0E0083091E1082817390799F0892B29F0A0
S11315E080EA9FE00E94251B04C080E090E00E94F6
S11315F0DF1A80912F0D9091300D9093E108809324
S1131600E0082091430B3091440B80912D0D909173
S11316102E0D2817390731F483E39DE00E94E01F63
S1131620882331F180912D0D90912E0D82309105FA
S11316302CF088EE93E00E946D1B0CC08F3F9F4FEF
S11316402CF488E19CEF0E946D1B04C080E090E0C4
S11316500E946D1B80912D0D90912E0D9093440B43
S11316608093430B05C081E08093AD0482E036D6BD
S113167081E08093AC0485E89BE00E94C61F8FEE56
S113168097E00E94C61F8FEF97E00E94C61F85E86F
S11316909BE00E94E01F882311F180E090E00E940B
S11316A0DE1380E090E00E94451E80E090E00E94FE
S11316B06D1B80E090E00E94251B64E070E080E0F8
S11316C0B3D16091B0047091B10481E0ADD185E0F3
S11316D0CCD188E003D685E89BE00E94C61FCF9159
S11316E008950F931F9302E310E020E030E040E000
S11316F050E060E070E084E49DE00E94B81F02E0E6
S113170020E030E040E050E060E070E08FEF97E0F0
S11317100E94B81F05E020E030E040E050E060E0C7
S113172070E086E19AE00E94B81F02E320E030E016
S113173040E050E060E070E08BE29BE00E94B81F64
S113174002E020E030E040E050E060E070E08FEE46
S113175097E00E94B81F08EE13E020E030E040E07C
S113176050E060E070E085E89BE00E94B81F02E36F
S113177010E020E030E040E050E060E070E081E71D
S11317809BE00E94B81F20E030E040E050E060E0C1
S113179070E081E69BE00E94B81F20E030E040E06A
S11317A050E060E070E083E39DE00E94B81F1F9169
S11317B00F9108959093B1048093B0040895909389
S11317C0AF048093AE04089585E89DE00895E8E2AF
S11317D0FAE082E29BE01192E817F907E1F7089535
S11317E0AF92BF92CF92DF92EF92FF920F931F932B
S11317F090933E0B80933D0B40935E0B1093260D0C
S11318000093250DD092320DC092310DB092680D27
S1131810A092670DF092460BE092450B6695669593
S11318206093280B88E499E09093100880930F0844
S1131830209311081092FC0B1092FB0B1F910F9137
S1131840FF90EF90DF90CF90BF90AF900895AF924C
S1131850BF92CF92DF92EF92FF920F931F939093D8
S11318607E0D80937D0D4093430D10935A0B00938E
S1131870590BD092230BC092220BB092270AA0924C
S1131880260AF092250BE092240B669566956093E8
S11318902C0D82E198E09093820B8093810B20932E
S11318A0770D1092270B1092260B1F910F91FF902A
S11318B0EF90DF90CF90BF90AF900895AF92BF921A
S11318C0CF92DF92EF92FF920F931F930F2EFFE1BF
S11318D0AF2EF2E0BF2EF02D0F2EFFE3CF2EF2E05D
S11318E0DF2EF02D0F2EFFE0EF2EF2E0FF2EF02D75
S11318F003EC11E020E046E064E689EE9DE070DF51
S11319000F2EFFE2AF2EF2E0BF2EF02D0F2EF4E4E7
S1131910CF2EF2E0DF2EF02D0F2EFFEFEF2EF1E0B1
S1131920FF2EF02D01EE11E020E046E064E685E8AC
S11319309DE08DDF1F910F91FF90EF90DF90CF908E
S1131940BF90AF900895FC019C01260F311DB90191
S113195080E058E04CE80AC02191952F322F3827B7
S1131960869530FD842726959150C1F7E617F70731
S113197099F7089550933C0B40933B0BFC01E453BF
S1131980FF4F40815181453C51050CF04CC03497C8
S113199020813181FC01E20FF31F6083B9016F5F85
S11319A07F4F683C710568F5FC01E853FF4F718374
S11319B060833496DA011196B183A083E0913B0BE6
S11319C0DC01A60FB71FEC936F5F7F4F683C710576
S11319D018F5E0913C0BDC01A60FB71FEC932D5FCB
S11319E03F4F283C310510F020E030E0FC01E85383
S11319F0FF4F3183208334964D5F5F4F5183408383
S1131A000895EBE3FBE02081DC012C932181119606
S1131A102C9322E030E0EACF20913C0BFC012083A0
S1131A2021E030E0E3CF0895AB01682F82E198E034
S1131A30A1CF0895DC011F96ED91FC915097AE0F54
S1131A40BF1F6C9311964C93119712962C93339657
S1131A50EF30F10534F4DC015096FC93EE931F97BC
S1131A600895FC01108A17860895EF92FF920F9350
S1131A701F93CF93DF93F82ECEEDD8E06881809149
S1131A80810B9091820B5FDFE82EE091590BF0916E
S1131A905A0B86E00995E091590BF0915A0B85E8B1
S1131AA00995E091590BF0915A0B8F2D0995E0910E
S1131AB0590BF0915A0B8091430D0995E091590B04
S1131AC0F0915A0B88810995888199811816190615
S1131AD0BCF4C0E0D0E00EED18E0A091810BB09111
S1131AE0820BAC0FBD1FE091590BF0915A0B8C91F6
S1131AF009952196F80120813181C217D3076CF32F
S1131B00E091590BF0915A0B8E2D099520E04E2D42
S1131B106F2D88E49BE08EDF1092DF081092DE08C0
S1131B201092DB081092DA081092DD081092DC089B
S1131B30DF91CF911F910F91FF90EF900895653041
S1131B4008F064E06F5F70E09B01220F331F620FA7
S1131B50731FFC01278530892617370734F4261BA9
S1131B60370BE20FF31F418B0895261B370BFC0143
S1131B70E20FF31F42830895FC01653008F064E02E
S1131B80433008F042E06F5F70E0CB01880F991F8B
S1131B90680F791F278530892617370744F4261BD9
S1131BA0370BE20FF31FE40FF11D87850895261B01
S1131BB0370BE20FF31FE40FF11D80810895EF92BC
S1131BC0FF920F931F93CF93DF9300D01F92CDB753
S1131BD0DEB7E091220BF091230B09950497CCF327
S1131BE0E091240BF091250B09958983E091240B56
S1131BF0F091250B0995F82E8A83E091240BF0913E
S1131C00250B0995082F8B83E091240BF091250B6C
S1131C100995182F63E0CE01019695DE181327C0AD
S1131C20E090270D10E040E0612F88E49BE0A4DF02
S1131C308E1119C041E0612F88E49BE09DDF0813F9
S1131C4012C081E0F81206C041E0612F88E49BE0F5
S1131C5076DF16C082E0F81206C042E0612F88E405
S1131C609BE06DDF0DC01F5F1530E9F609C0809160
S1131C707B0D90917C0D019690937C0D80937B0D50
S1131C800F900F900F90DF91CF911F910F91FF90C4
S1131C90EF9008950F931F93CF93DF9300D01F927B
S1131CA0CDB7DEB78091240D81116CC0E091220B79
S1131CB0F091230B09950597BCF45FC0E091240BC8
S1131CC0F091250B09958091260B9091270B019695
S1131CD09093270B8093260BE091220BF091230B1A
S1131CE0099505970CF492C1E091260AF091270A10
S1131CF00995863019F7E091260AF091270A09958B
S1131D00863009F085C1E091240BF091250B0995EB
S1131D10E091240BF091250B0995853871F580919C
S1131D20240B9091250BFC01099580935D0B809108
S1131D30240B9091250BFC0109958093270D80912C
S1131D40240B9091250BFC0109958093240D80911F
S1131D505D0B9091430D891781F08550833068F0B5
S1131D608091290B90912A0B019690932A0B8093D2
S1131D70290B1092240D80E050C18091240D8823FA
S1131D8009F448C18091470B811125C0E091220BD1
S1131D90F091230B099518161906C4F7E091260A49
S1131DA0F091270A09958F3FB1F409DF1092240DB1
S1131DB01092470B0CDD6EDF30C181E0810F809300
S1131DC0470BE091240BF091250B0995E12FF0E0EE
S1131DD0E85DF54F8083E091220BF091230B099588
S1131DE0892B31F01091470B8091240D811728F72E
S1131DF06091240D062F10E08091470B90E001972D
S1131E000817190709F008C188E29AE09CDD80935D
S1131E103F0BF801E85DF54F208182139BC0909140
S1131E205D0B8091430D98133CC08091240D882351
S1131E30C1F1AAE2BAE020E030E04BE35BE0FD014F
S1131E403297608180912C0D6817C8F4CD010197F9
S1131E50FC018081FA0180838C918183E62FF0E07C
S1131E60EE0FFF1F80917D0D90917E0DE80FF91FFD
S1131E7080913B0B90913C0B9183808309C08091AE
S1131E80F90B9091FA0B01969093FA0B8093F90B4E
S1131E902D5F3F4F13968091240D90E0281739074A
S1131EA074F28091770D882309F44DC08FEF8983F4
S1131EB081E08A83E091470BF0E0E95DF54F808192
S1131EC08B8363E0CE0101963EDD182FE091590B20
S1131ED0F0915A0B86E00995E091590BF0915A0B59
S1131EE085E80995E091590BF0915A0B8091270DE3
S1131EF00995E091590BF0915A0B8091430D099586
S1131F00E091590BF0915A0B83E00995E091590B3C
S1131F10F0915A0B8FEF0995E091590BF0915A0B00
S1131F2081E00995A091470BB0E0A95DB54FE09120
S1131F30590BF0915A0B8C910995E091590BF09142
S1131F405A0B812F09951092240D1092470B3FDCF8
S1131F5081E063C080917B0D90917C0D01969093FC
S1131F607C0D80937B0D8091770D882309F447C005
S1131F708FEF898382E08A832B8363E0CE0101960D
S1131F80E2DC182FE091590BF0915A0B86E0099589
S1131F90E091590BF0915A0B85E80995E091590BA2
S1131FA0F0915A0B8091270D0995E091590BF0910E
S1131FB05A0B8091430D0995E091590BF0915A0BFE
S1131FC083E00995E091590BF0915A0B8FEF099535
S1131FD0E091590BF0915A0B82E00995A091470BBF
S1131FE0B0E0A95DB54FE091590BF0915A0B8C917B
S1131FF00995E091590BF0915A0B812F0995109294
S1132000240D1092470BE3DB80E007C080E005C09D
S113201080E003C080E001C080E00F900F900F903B
S1132020DF91CF911F910F9108950F931F93CF9339
S1132030789486E091E09093A40E8093A30E60E0E0
S113204072EC81E090E00E94710160E072EC81E04A
S113205090E00E941F0183E10E94C3018FE794E096
S11320600E94DE218FE782B988EF81BB9FEF91B98F
S113207080BBC1E061E08C2FCAD02FEF80E792E0F3
S1132080215080409040E1F700C00000CF5FCD3088
S113209089F72FEF8BE792E9215080409040E1F7D8
S11320A000C00000C1E060E08C2FB1D02FEF80E7CA
S11320B092E0215080409040E1F700C00000CF5FE3
S11320C0CD3089F70E943406F9DB85D8C1E061E0A0
S11320D08C2F9DD0CF5FCD30D1F7FBD30E943C2015
S11320E008EE13E020E030E040E050E060E070E013
S11320F08DE49EE00E94B81F02E310E020E030E08F
S113210040E050E060E070E08DE69EE00E94B81F81
S1132110E8DA89E894E00E94DE21C1E060E08C2FD7
S113212076D0CF5FCD30D1F7CF911F910F91089525
S1132130319907C08FE39CE90197F1F700C00000D3
S11321400895329907C08FE39CE90197F1F700C025
S113215000000895929907C08FE39CE90197F1F775
S113216000C000000895309951C08091B2048111DB
S113217023C061E084E04BD064E070E080E090E054
S11321800E94990764E070E081E090E00E94990762
S11321906DE270E082E090E00E94990786E090E0B2
S11321A00E94290881E08093B2048DE290E007DB6D
S11321B084E090E0FFDA21C060E084E028D064E0AD
S11321C070E080E090E00E94990760E070E081E0B8
S11321D090E00E94990760E070E082E090E00E9445
S11321E0990786E090E00E9429081092B20480E0EA
S11321F090E0E5DA80E090E0DDDA9FEF24E38CE024
S1132200915020408040E1F700C000000895962FCF
S113221061111BC0482F50E0FA013197EC30F105F1
S113222098F5E65BFF4F0C94812088E041C080E480
S113223035C081E03DC084E03BC080E139C080E42A
S113224037C080E22BC088E029C0482F50E0FA0153
S11322503197EC30F105C0F4EA5AFF4F0C94812019
S113226087EF26C08FEB1AC08DEF22C08EEF20C0FF
S11322708BEF1EC08FEE1CC08FEB1AC08FE70EC011
S11322808FED0CC087EF0AC08A3028F4833078F4CD
S1132290813018F102C08D3000F580E02FB191112A
S11322A003C0822B81BB0895822381BB089580E003
S11322B020B1911103C0822B82B90895822382B97F
S11322C0089580E1EBCF80E8E9CF8FEEE7CF80E29D
S11322D0EFCF82E0EDCF8FEDEBCF0895482F50E0A4
S11322E0FA013197EC30F105A0F4EE59FF4F0C944C
S11322F0812088E01BC080E416C081E017C084E020
S113230015C080E113C080E411C080E20CC088E0F5
S11323100AC08A3028F4833040F4813088F002C047
S11323208D3070F480E08FB9089580E080B908950D
S113233080E1F9CF80E8F7CF80E2F8CF82E0F6CFF2
S1132340089573DE04E610E020E030E040E050E061
S113235060E070E08DE59EE00E94B81F8DE49EE091
S11323600E94E01F882311F086E0B8DF5DD8E0DE2C
S1132370F5CFBC016D5F7F4F89E69DE00C94BE00F4
S11323800895EF92FF920F931F93CF93DF93CDB7EE
S1132390DEB7C856D1090FB6F894DEBF0FBECDBF65
S11323A088E0E6E1F1E0DE01119601900D928A9554
S11323B0E1F788E0EEE1F1E0DE01199601900D927B
S11323C08A95E1F788E0E6E2F1E0DE0151960190BA
S11323D00D928A95E1F788E0EEE2F1E0DE0159968C
S11323E001900D928A95E1F788E0E6E3F1E0DE01E1
S11323F0919601900D928A95E1F788E0EEE3F1E081
S1132400DE01999601900D928A95E1F788E0E6E461
S1132410F1E0DE01D19601900D928A95E1F788E012
S1132420EEE4F1E0DE01D99601900D928A95E1F790
S113243088E0E6E5F1E0DE01AF5BBF4F01900D926D
S11324408A95E1F788E0EEE5F1E0DE01A75BBF4F96
S113245001900D928A95E1F788E0E6E6F1E0DE016D
S1132460AF5ABF4F01900D928A95E1F788E0EEE6EE
S1132470F1E0DE01A75ABF4F01900D928A95E1F772
S113248088E0E6E7F1E0DE01AF59BF4F01900D921D
S11324908A95E1F748E050E064E070E089E69DE069
S11324A00E948E0029EB31E14FEF57E06DEF75E0AC
S11324B080E00E947005882309F098950F2EF7E0BC
S11324C0EF2EF12CF02D09E61DE029813A814B8194
S11324D05C816D817E818F8198856ED4A2962FADAB
S11324E0A297A3963FADA397A4964FADA497A596A4
S11324F05FADA597A6966FADA697A7967FADA79754
S1132500A8968FADA897A9969FADA99755D429A150
S11325103AA14BA15CA16DA17EA18FA198A54CD439
S113252029A53AA54BA55CA56DA57EA58FA598A95F
S113253043D429A93AA94BA95CA96DA97EA98FA95D
S113254098AD3AD429853A854B855C856D857E8521
S11325508F85988931D429893A894B895C896D8919
S11325607E898F89988D28D48FE39FE10197F1F7B5
S113257000C0000029AD3AAD4BAD5CAD6DAD7EAD94
S11325808FAD21969FAD219717D422962FAD229718
S113259023963FAD239724964FAD249725965FADA0
S11325A0259726966FAD269727967FAD2797289671
S11325B08FAD289729969FAD2997FED32A962FADE4
S11325C02A972B963FAD2B972C964FAD2C972D9693
S11325D05FAD2D972E966FAD2E972F967FAD2F97CB
S11325E060968FAD609761969FAD6197E5D36296D3
S11325F02FAD629763963FAD639764964FAD649732
S113260065965FAD659766966FAD669767967FAD85
S1132610679768968FAD689769969FAD6997CCD395
S1132620298D3A8D4B8D5C8D6D8D7E8D8F8D98A10E
S1132630C3D36A962FAD6A976B963FAD6B976C9632
S11326404FAD6C976D965FAD6D976E966FAD6E974F
S11326506F967FAD6F97A0968FADA097A1969FAD13
S1132660A197AAD3C859DF4F0FB6F894DEBF0FBEA7
S1132670CDBFDF91CF911F910F91FF90EF900895FF
S1132680EF92FF920F931F93CF93DF93CDB7DEB7F3
S113269068970FB6F894DEBF0FBECDBF88E0EEE7B3
S11326A0F1E0DE01119601900D928A95E1F788E040
S11326B0E6E8F1E0DE01199601900D928A95E1F7C2
S11326C088E0EEE8F1E0DE01519601900D928A95E2
S11326D0E1F70F2EF7E0EF2EF12CF02D09E61DE0C7
S11326E029813A814B815C816D817E818F819885BE
S11326F063D329853A854B855C856D857E858F8579
S113270098895AD329893A894B895C896D897E894C
S11327108F89988D51D368960FB6F894DEBF0FBE9B
S1132720CDBFDF91CF911F910F91FF90EF9008954E
S1132730EF92FF920F931F93CF93DF93CDB7DEB742
S113274028970FB6F894DEBF0FBECDBF813727E1BF
S1132750920714F080E797E12DE7298320E033E323
S11327603B832A831C82803928EE920714F480E983
S113277098EE092E000CAA0BBB0B682F8D839E8349
S1132780AF83B8870F2EF7E0EF2EF12CF02D09E67A
S11327901DE029813A814B815C817E818F819885FE
S11327A00BD328960FB6F894DEBF0FBECDBFDF91D2
S11327B0CF911F910F91FF90EF900895CF93DF93E6
S11327C0CDB7DEB760970FB6F894DEBF0FBECDBFAE
S11327D0813727E1920714F080E797E12DE72987F5
S11327E020E033E33B872A871C86803928EE920752
S11327F014F480E998EE092E000CAA0BBB0B8D870C
S11328009E87AF87B88B07C0BE016F5F7F4F89E695
S11328109DE00E94E90089E69DE00E941B011816D4
S1132820190694F329853A854B855C856D857E85EB
S11328308F8598890E94061F8823A1F360960FB69E
S1132840F894DEBF0FBECDBFDF91CF910895CF9234
S1132850DF92EF92FF920F931F93CF93DF93CDB745
S1132860DEB760970FB6F894DEBF0FBECDBF88E029
S1132870EEEAF1E0DE01199601900D928A95E1F7F6
S1132880CE0101966C010F2EF7E0EF2EF12CF02D06
S113289009E61DE029853A854B855C856D857E8535
S11328A08F85988918D3882321F08D818295817032
S11328B001C080E060960FB6F894DEBF0FBECDBFB6
S11328C0DF91CF911F910F91FF90EF90DF90CF9008
S11328D00895BED70E94A71D80E090E00E94FF1DCE
S11328E050DDCEDE80E090E023DF8FD3B9D5A3D4D2
S11328F00FD64FC70895AF92BF92CF92DF92EF9257
S1132900FF920F931F93CF93DF93CDB7DEB7E0977A
S11329100FB6F894DEBF0FBECDBFD62EA72EB82EAD
S1132920C92E28E0EEEDF1E0DE01119601900D9242
S11329302A95E1F728E0E6EEF1E0DE011996019030
S11329400D922A95E1F728E0EEEEF1E0DE015196D2
S113295001900D922A95E1F728E0E6EFF1E0DE011F
S1132960599601900D922A95E1F728E0EEEFF1E0F7
S1132970DE01919601900D922A95E1F70F2EF7E072
S1132980EF2EF12CF02D09E61DE029813A814B81CF
S11329905C816D817E818F8198850ED229893A89E7
S11329A04B895C896D897E898F89988D05D229A18F
S11329B03AA14BA15CA16DA17EA18FA198A5FCD1E8
S11329C029853A854B855C856D857E858F859889BB
S11329D0F3D1298D3A8D4B8D5C8D6D8D7E8D8F8DD0
S11329E098A1EAD120E9322F6D2D2DE747E350E07D
S11329F07A2D8B2D9C2DE0D1E0960FB6F894DEBF96
S1132A000FBECDBFDF91CF911F910F91FF90EF903B
S1132A10DF90CF90BF90AF9008958F929F92AF9226
S1132A20BF92EF92FF920F931F93CF93DF93CDB793
S1132A30DEB7E0970FB6F894DEBF0FBECDBF4B01F3
S1132A405C0188E0E6E0F2E0DE01119601900D926F
S1132A508A95E1F788E0EEE0F2E0DE011996019054
S1132A600D928A95E1F788E0E6E1F2E0DE01519605
S1132A7001900D928A95E1F788E0EEE1F2E0DE0143
S1132A80599601900D928A95E1F788E0E6E2F2E02A
S1132A90DE01919601900D928A95E1F70F2EF6E0F2
S1132AA0EF2EF12CF02D0BE01CE029813A814B81B3
S1132AB05C816D817E818F8198857ED129893A8957
S1132AC04B895C896D897E898F89988D75D129A1FF
S1132AD03AA14BA15CA16DA17EA18FA198A56CD157
S1132AE029853A854B855C856D857E858F8598899A
S1132AF063D1298D3A8D4B8D5C8D6D8D7E8D8F8D3F
S1132B0098A15AD180E9382F88279927DC018819A0
S1132B109909AA09BB09682F8DA79EA7AFA7B8ABCF
S1132B202EE747E350E07EA58FA598A945D1E0960E
S1132B300FB6F894DEBF0FBECDBFDF91CF911F91CA
S1132B400F91FF90EF90BF90AF909F908F9008955A
S1132B50EF92FF920F931F93CF93DF93CDB7DEB71E
S1132B60A0970FB6F894DEBF0FBECDBF88E0EEE2AB
S1132B70F2E0DE01119601900D928A95E1F788E06A
S1132B80E6E3F2E0DE01199601900D928A95E1F7F1
S1132B9088E0EEE3F2E0DE01519601900D928A9511
S1132BA0E1F788E0E6E4F2E0DE01599601900D9247
S1132BB08A95E1F70F2EF7E0EF2EF12CF02D09E6C0
S1132BC01DE029813A814B815C816D817E818F81F9
S1132BD09885F2D029853A854B855C856D857E85FF
S1132BE08F859889E9D029893A894B895C896D89CF
S1132BF07E898F89988DE0D0298D3A8D4B8D5C8D9F
S1132C006D8D7E8D8F8D98A1D7D0A0960FB6F89438
S1132C10DEBF0FBECDBFDF91CF911F910F91FF900B
S1132C20EF900895EF92FF920F931F93CF93DF934A
S1132C30CDB7DEB7A0970FB6F894DEBF0FBECDBFF9
S1132C4088E0EEE4F2E0DE01119601900D928A959F
S1132C50E1F788E0E6E5F2E0DE01199601900D92D5
S1132C608A95E1F788E0EEE5F2E0DE015196019005
S1132C700D928A95E1F788E0E6E6F2E0DE015996E6
S1132C8001900D928A95E1F70F2EF6E0EF2EF12CCC
S1132C90F02D0BE01CE029813A814B815C816D8130
S1132CA07E818F81988588D029853A854B855C857E
S1132CB06D857E858F8598897FD029893A894B894E
S1132CC05C896D897E898F89988D76D0298D3A8D1E
S1132CD04B8D5C8D6D8D7E8D8F8D98A16DD0A09662
S1132CE00FB6F894DEBF0FBECDBFDF91CF911F9119
S1132CF00F91FF90EF900895CF92DF92EF92FF92A1
S1132D000F931F936B017C0160E086E080DA08E892
S1132D1013E120E030E040E050E060E070E08DE856
S1132D209EE00E94B81F0AE010E020E030E040E09E
S1132D3050E060E070E08DE79EE00E94B81F8DE7F0
S1132D409EE00E94E01F8823D1F3C701B601D3DDC2
S1132D5066277727CB016C197D098E099F095DDEF3
S1132D6061E086E054DA06C08DE79EE00E94E01F31
S1132D708823D1F3D2D78823B9F369DD8823A1F35B
S1132D80E7DE50DF60E086E042DA1F910F91FF90AA
S1132D90EF90DF90CF900895BC016D5F7F4F8DEF72
S1132DA09BE00C94BE000895BC016D5F7F4F84E5E9
S1132DB09DE00C94BE000895AF92BF92CF92DF9233
S1132DC0EF920F931F93CF93DF93CDB7DEB7609746
S1132DD00FB6F894DEBF0FBECDBF29873A874B8765
S1132DE05C876D877E878F87988B80911401909183
S1132DF015010E2C02C0959587950A94E2F780FF81
S1132E0042C0580106C0BE016F5F7F4FC5010E94DA
S1132E10E900C5010E941B0118161906A4F32985AF
S1132E203A854B855C856D857E858F859889EED73F
S1132E308823A9F30F2EF4E6CF2ED12CF02DC50153
S1132E400E941B01892BA1F0BE016F5F7F4FC5015A
S1132E500E94E90009851A852B853C854D855E8590
S1132E606F857889CE0101960E943F1F81110DC0A4
S1132E708FE99FE00197F1F700C0000091E0C91AC3
S1132E80D108E9F604C080E016C081E014C081E0F6
S1132E9090E002C0880F991FEA94E2F7809590951C
S1132EA020911401309115018223932390931501ED
S1132EB08093140180E060960FB6F894DEBF0FBED5
S1132EC0CDBFDF91CF911F910F91EF90DF90CF9005
S1132ED0BF90AF9008958F929F92AF92BF92CF927E
S1132EE0DF92EF920F931F93CF93DF93CDB7DEB7AB
S1132EF060970FB6F894DEBF0FBECDBF29873A871F
S1132F004B875C876D877E878F87988B80911401B0
S1132F10909115010E2C02C0959587950A94E2F7BD
S1132F2080FF4BC0480106C0BE016F5F7F4FC401E4
S1132F300E94E900C4010E941B0118161906A4F39B
S1132F4029853A854B855C856D857E858F85988935
S1132F502AD78823A9F30F2EF4E6AF2EB12CF02D37
S1132F60C4010E941B01892BE9F0BE016F5F7F4FF2
S1132F70C4010E94E90009851A852B853C854D858D
S1132F805E856F857889CE010196B3D7882351F089
S1132F9088E0FE013196D60101900D928A95E1F701
S1132FA081E021C08FE99FE00197F1F700C00000A4
S1132FB091E0A91AB108A1F602C080E014C081E032
S1132FC090E002C0880F991FEA94E2F780959095EB
S1132FD020911401309115018223932390931501BC
S1132FE08093140180E060960FB6F894DEBF0FBEA4
S1132FF0CDBFDF91CF911F910F91EF90DF90CF90D4
S1133000BF90AF909F908F900895EF92FF920F938F
S11330101F93CF93DF93CDB7DEB7C055D1090FB659
S1133020F894DEBF0FBECDBF88E0EEE6F2E0DE012D
S1133030119601900D928A95E1F788E0E6E7F2E0B7
S1133040DE01199601900D928A95E1F788E0EEE78A
S1133050F2E0DE01519601900D928A95E1F788E045
S1133060E6E8F2E0DE01599601900D928A95E1F7C7
S113307088E0EEE8F2E0DE01919601900D928A95E7
S1133080E1F788E0E6E9F2E0DE01999601900D921D
S11330908A95E1F788E0EEE9F2E0DE01D19601904D
S11330A00D928A95E1F788E0E6EAF2E0DE01D9962E
S11330B001900D928A95E1F748E050E064E070E0F9
S11330C08DEF9BE00E948E002CEC36E14FEF57E031
S11330D06CEF75E082E00E947005882309F09895F2
S11330E00F2EF5E0EF2EF12CF02D0DEF1BE02981D2
S11330F03A814B815C816D817E818F8198855CDE14
S113310029853A854B855C856D857E858F85988973
S113311053DE29893A894B895C896D897E898F8937
S1133120988D4ADE298D3A8D4B8D5C8D6D8D7E8D0B
S11331308F8D98A141DE8FE39FE10197F1F700C0E5
S1133140000029A13AA14BA15CA16DA17EA18FA190
S113315098A532DE29A53AA54BA55CA56DA57EA54B
S11331608FA598A929DE29A93AA94BA95CA96DA91B
S11331707EA98FA998AD20DE88E0EEEAF2E0DE01B8
S1133180AF5BBF4F01900D928A95E1F788E0E6EBC3
S1133190F2E0DE01A75BBF4F01900D928A95E1F743
S11331A02A962FAD2A972B963FAD2B972C964FAD91
S11331B02C972D965FAD2D972E966FAD2E972F964B
S11331C07FAD2F9760968FAD609761969FAD6197A5
S11331D0F3DD22962FAD229723963FAD23972496B5
S11331E04FAD249725965FAD259726966FAD26970C
S11331F027967FAD279728968FAD289729969FAD60
S11332002997DADD29AD3AAD4BAD5CAD6DAD7EAD40
S11332108FAD21969FAD2197CFDDC05BDF4F0FB6F9
S1133220F894DEBF0FBECDBFDF91CF911F910F91F8
S1133230FF90EF900895EF92FF920F931F93CF9317
S1133240DF93CDB7DEB7C055D1090FB6F894DEBF12
S11332500FBECDBF88E0EEEBF2E0DE0111960190E7
S11332600D928A95E1F788E0E6ECF2E0DE0119962A
S113327001900D928A95E1F788E0EEECF2E0DE0130
S1133280519601900D928A95E1F788E0E6EDF2E01F
S1133290DE01599601900D928A95E1F788E0EEEDF2
S11332A0F2E0DE01919601900D928A95E1F788E0B3
S11332B0E6EEF2E0DE01999601900D928A95E1F72F
S11332C088E0EEEEF2E0DE01D19601900D928A954F
S11332D0E1F788E0E6EFF2E0DE01D99601900D9285
S11332E08A95E1F788E0EEEFF2E0DE01AF5BBF4FD5
S11332F001900D928A95E1F788E0E6E0F3E0DE01C3
S1133300A75BBF4F01900D928A95E1F748E050E02A
S113331064E070E084E59DE00E948E0024ED36E1D7
S11333204FEF57E06FEF75E083E00E94700588234C
S113333009F098956894EE24E2F8F12C04E51DE078
S113334029813A814B815C816D817E818F81988551
S113335033DD29853A854B855C856D857E858F8532
S113336098892ADD29893A894B895C896D897E8906
S11333708F89988D21DD8FE39FE10197F1F700C0DC
S1133380000029A13AA14BA15CA16DA17EA18FA14E
S113339098A512DD298D3A8D4B8D5C8D6D8D7E8DBA
S11333A08F8D98A109DD29A53AA54BA55CA56DA52E
S11333B07EA58FA598A900DD29A93AA94BA95CA9E6
S11333C06DA97EA98FA998ADF7DC29AD3AAD4BADB7
S11333D05CAD6DAD7EAD8FAD21969FAD2197ECDCDC
S11333E022962FAD229723963FAD239724964FAD77
S11333F0249725965FAD259726966FAD2697279639
S11334007FAD279728968FAD289729969FAD29974A
S1133410D3DC2A962FAD2A972B963FAD2B972C966B
S11334204FAD2C972D965FAD2D972E966FAD2E97A1
S11334302F967FAD2F9760968FAD609761969FAD65
S11334406197BADCC05BDF4F0FB6F894DEBF0FBEE6
S1133450CDBFDF91CF911F910F91FF90EF90089511
S1133460EF92FF920F931F93CF93DF93CDB7DEB705
S113347068970FB6F894DEBF0FBECDBF88E0EEE0CC
S1133480F3E0DE01119601900D928A95E1F788E050
S1133490E6E1F3E0DE01199601900D928A95E1F7D9
S11334A088E0EEE1F3E0DE01519601900D928A95F9
S11334B0E1F70F2EF5E0EF2EF12CF02D0DEF1BE0D0
S11334C029813A814B815C816D817E818F819885D0
S11334D073DC29853A854B855C856D857E858F8572
S11334E098896ADC29893A894B895C896D897E8946
S11334F08F89988D61DC68960FB6F894DEBF0FBE95
S1133500CDBFDF91CF911F910F91FF90EF90089560
S1133510EF92FF920F931F93CF93DF93CDB7DEB754
S113352068970FB6F894DEBF0FBECDBF88E0E6E221
S1133530F3E0DE01119601900D928A95E1F788E09F
S1133540EEE2F3E0DE01199601900D928A95E1F71F
S113355088E0E6E3F3E0DE01519601900D928A954E
S1133560E1F76894EE24E2F8F12C04E51DE02981EA
S11335703A814B815C816D817E818F8198851CDCD1
S113358029853A854B855C856D857E858F859889EF
S113359013DC29893A894B895C896D897E898F89F5
S11335A0988D0ADC68960FB6F894DEBF0FBECDBFC7
S11335B0DF91CF911F910F91FF90EF900895EF92BB
S11335C0FF920F931F93CF93DF93CDB7DEB7289766
S11335D00FB6F894DEBF0FBECDBF813727E1920747
S11335E014F080E797E12CE7298320E033E33B8361
S11335F02A831C82803928EE920714F480E998EE1D
S1133600092E000CAA0BBB0B682F8D839E83AF83FE
S1133610B8870F2EF5E0EF2EF12CF02D0DEF1BE007
S113362029813A814B815C817E818F819885C4DBBD
S113363028960FB6F894DEBF0FBECDBFDF91CF91B1
S11336401F910F91FF90EF900895CF93DF93CDB723
S1133650DEB760970FB6F894DEBF0FBECDBF8137DB
S113366027E1920714F080E797E12CE7298720E00F
S113367033E33B872A871C86803928EE920714F4AB
S113368080E998EE092E000CAA0BBB0B8D879E8750
S1133690AF87B88B07C0BE016F5F7F4F8DEF9BE094
S11336A00E94E9008DEF9BE00E941B011816190689
S11336B094F329853A854B855C856D857E858F8558
S11336C09889A4D38823A9F360960FB6F894DEBF33
S11336D00FBECDBFDF91CF910895CF93DF93CDB7C8
S11336E0DEB768970FB6F894DEBF0FBECDBF813743
S11336F027E1920714F080E797E128E0EEE5F3E094
S1133700DE01199601900D922A95E1F72FE7298B96
S113371020E033E33B8B2A8B1C8A803928EE920706
S113372014F480E998EE092E000CAA0BBB0B8D8BC8
S11337309E8BAF8BB88F07C0BE016F5F7F4F84E550
S11337409DE00E94E90084E59DE00E941B0118169B
S1133750190694F329853A854B855C856D857E85AC
S11337608F85988953D38823A9F329893A894B896A
S11337705C896D897E898F89988D48D38823A9F3C4
S113378068960FB6F894DEBF0FBECDBFDF91CF9120
S11337900895EF92FF920F931F93CF93DF93CDB7CA
S11337A0DEB768970FB6F894DEBF0FBECDBF88E0D2
S11337B0E6E6F3E0DE01119601900D928A95E1F7B9
S11337C088E0EEE6F3E0DE01199601900D928A9509
S11337D0E1F788E0EEE6F3E0DE01519601900D9208
S11337E08A95E1F76894EE24E2F8F12C04E51DE0F3
S11337F029813A814B815C816D817E818F8198859D
S1133800DBDA29853A854B855C856D857E858F85D8
S11338109889D2DA29893A894B895C896D897E89AC
S11338208F89988DC9DA68960FB6F894DEBF0FBEFB
S1133830CDBFDF91CF911F910F91FF90EF9008952D
S1133840BC016D5F7F4F8BE09CE00C94BE0008953B
S1133850EF92FF920F931F93CF93DF93CDB7DEB711
S1133860C856D1090FB6F894DEBF0FBECDBF88E0AD
S1133870EEEBF3E0DE01119601900D928A95E1F7EB
S113388088E0E6ECF3E0DE01199601900D928A954A
S1133890E1F788E0EEECF3E0DE01519601900D9241
S11338A08A95E1F788E0E6EDF3E0DE0159960190B0
S11338B00D928A95E1F788E0EEEDF3E0DE01919652
S11338C001900D928A95E1F788E0E6EEF3E0DE01DF
S11338D0999601900D928A95E1F788E0EEEEF3E077
S11338E0DE01D19601900D928A95E1F788E0E6EF2A
S11338F0F3E0DE01D99601900D928A95E1F788E014
S1133900EEEFF3E0DE01AF5BBF4F01900D928A95BD
S1133910E1F788E0E6E0F4E0DE01A75BBF4F019049
S11339200D928A95E1F788E0EEE0F4E0DE01AF5A0B
S1133930BF4F01900D928A95E1F788E0E6E1F4E04B
S1133940DE01A75ABF4F01900D928A95E1F788E0F6
S1133950EEE1F4E0DE01AF59BF4F01900D928A957C
S1133960E1F748E050E064E070E08BE09CE00E9406
S11339708E0020E23CE14FEF57E06EEF75E081E00E
S11339800E947005882309F098950F2EF6E0EF2E1B
S1133990F12CF02D0BE01CE029813A814B815C81F4
S11339A06D817E818F81988507DAA2962FADA297CB
S11339B0A3963FADA397A4964FADA497A5965FADEC
S11339C0A597A6966FADA697A7967FADA797A8963D
S11339D08FADA897A9969FADA997EED929A13AA131
S11339E04BA15CA16DA17EA18FA198A5E5D929A5C4
S11339F03AA54BA55CA56DA57EA58FA598A9DCD994
S1133A0029A93AA94BA95CA96DA97EA98FA998AD4A
S1133A10D3D929853A854B855C856D857E858F85CF
S1133A209889CAD929893A894B895C896D897E89A3
S1133A308F89988DC1D98FE39FE10197F1F700C079
S1133A40000029AD3AAD4BAD5CAD6DAD7EAD8FAD33
S1133A5021969FAD2197B0D922962FAD2297239618
S1133A603FAD239724964FAD249725965FAD2597B8
S1133A7026966FAD269727967FAD279728968FAD0C
S1133A80289729969FAD299797D92A962FAD2A97DB
S1133A902B963FAD2B972C964FAD2C972D965FAD63
S1133AA02D972E966FAD2E972F967FAD2F976096FC
S1133AB08FAD609761969FAD61977ED962962FAD69
S1133AC0629763963FAD639764964FAD649765962E
S1133AD05FAD659766966FAD669767967FAD67979E
S1133AE068968FAD689769969FAD699765D9298D5A
S1133AF03A8D4B8D5C8D6D8D7E8D8F8D98A15CD9AB
S1133B006A962FAD6A976B963FAD6B976C964FADE7
S1133B106C976D965FAD6D976E966FAD6E976F9661
S1133B207FAD6F97A0968FADA097A1969FADA197FB
S1133B3043D9C859DF4F0FB6F894DEBF0FBECDBFCF
S1133B40DF91CF911F910F91FF90EF900895EF9225
S1133B50FF920F931F93CF93DF93CDB7DEB7689790
S1133B600FB6F894DEBF0FBECDBF88E0E6E2F4E006
S1133B70DE01119601900D928A95E1F788E0EEE25C
S1133B80F4E0DE01199601900D928A95E1F788E040
S1133B90E6E3F4E0DE01519601900D928A95E1F797
S1133BA00F2EF6E0EF2EF12CF02D0BE01CE0298116
S1133BB03A814B815C816D817E818F819885FCD8AF
S1133BC029853A854B855C856D857E858F859889A9
S1133BD0F3D829893A894B895C896D897E898F89D3
S1133BE0988DEAD868960FB6F894DEBF0FBECDBFA5
S1133BF0DF91CF911F910F91FF90EF900895EF9275
S1133C00FF920F931F93CF93DF93CDB7DEB728971F
S1133C100FB6F894DEBF0FBECDBF813727E1920700
S1133C2014F080E797E12EE7298320E033E33B8318
S1133C302A831C82803928EE920714F480E998EED6
S1133C40092E000CAA0BBB0B682F8D839E83AF83B8
S1133C50B8870F2EF6E0EF2EF12CF02D0BE01CE0D0
S1133C6029813A814B815C817E818F819885A4D89A
S1133C7028960FB6F894DEBF0FBECDBFDF91CF916B
S1133C801F910F91FF90EF900895CF93DF93CDB7DD
S1133C90DEB760970FB6F894DEBF0FBECDBF813795
S1133CA027E1920714F080E797E12EE7298720E0C7
S1133CB033E33B872A871C86803928EE920714F465
S1133CC080E998EE092E000CAA0BBB0B8D879E870A
S1133CD0AF87B88B07C0BE016F5F7F4F8BE09CE05E
S1133CE00E94E9008BE09CE00E941B011816190653
S1133CF094F329853A854B855C856D857E858F8512
S1133D00988984D08823A9F360960FB6F894DEBF0F
S1133D100FBECDBFDF91CF910895CF92DF92EF9286
S1133D20FF920F931F93CF93DF93CDB7DEB76097C6
S1133D300FB6F894DEBF0FBECDBF88E0E6E5F4E031
S1133D40DE01199601900D928A95E1F7CE01019654
S1133D506C010F2EF6E0EF2EF12CF02D0BE01CE0A1
S1133D6029853A854B855C856D857E858F85988907
S1133D70B2D8882321F08D818295817001C080E0C2
S1133D8060960FB6F894DEBF0FBECDBFDF91CF9122
S1133D901F910F91FF90EF90DF90CF900895FC0159
S1133DA0118210820895CF93DF93CDB7DEB7639766
S1133DB00FB6F894DEBF0FBECDBF932F5F8730E000
S1133DC03A5F3A83298388E08B83E6E7F4E0DE01F7
S1133DD0149601900D928A95E1F780E48C839D837B
S1133DE04E838F858F83188619861A861B86BE019B
S1133DF06F5F7F4F8EE00E94070563960FB6F894BD
S1133E00DEBF0FBECDBFDF91CF9108951F93CF9337
S1133E10DF93CDB7DEB763970FB6F894DEBF0FBE5E
S1133E20CDBF132F5F87798B762F6989582F30E0A8
S1133E303A5F3A83298388E08B83E6E7F4E0DE0186
S1133E40149601900D928A95E1F783E28C831D8389
S1133E504E838F858F83788769875A879B87BE01B6
S1133E606F5F7F4F8EE00E94070563960FB6F8944C
S1133E70DEBF0FBECDBFDF91CF911F9108950F9389
S1133E801F93CF93DF93CDB7DEB728970FB6F8947F
S1133E90DEBF0FBECDBFFC011A832B833C832A8176
S1133EA03B8180818036A9F4818190E0A901552766
S1133EB08417950781F4828190E0232F332782179A
S1133EC0930759F481E023819C81291739F080E01C
S1133ED005C080E003C080E001C080E028960FB6F2
S1133EE0F894DEBF0FBECDBFDF91CF911F910F912C
S1133EF008950F931F93CF93DF93CDB7DEB7289721
S1133F000FB6F894DEBF0FBECDBFFC011A832B831E
S1133F103C832A813B8190818EEB890F823018F09B
S1133F209B7F9B34A9F4818190E0A90155278417D4
S1133F30950781F4828190E0232F3327821793071A
S1133F4059F481E023819C81291739F080E005C070
S1133F5080E003C080E001C080E028960FB6F894AA
S1133F60DEBF0FBECDBFDF91CF911F910F9108959A
S1133F700F931F93FC0100831183228333834483B3
S1133F805583668377831F910F910895FC01709187
S1133F90B3046091B4045091B5044091B6043091D7
S1133FA0B7042091B8049091B9048091BA04708741
S1133FB06187528743873487258796878787089543
S1133FC06F927F928F929F92AF92BF92CF92DF9225
S1133FD0EF92FF920F931F93CF93DF93FC016090B6
S1133FE0B3047090B4048090B5049090B604D0915A
S1133FF0B704C091B804B091B904A091BA04208167
S11340003181428153816481758186819781A08445
S1134010B184C284D384E484F584068517857AD078
S1134020A22EB32EC42ED52EE62EF72E082F192F2E
S1134030262D372D482D592D6D2F7C2F8B2F9A2F00
S11340407ED050F06086718682869386D487C58739
S1134050B687A78781E001C080E0DF91CF911F91EF
S11340600F91FF90EF90DF90CF90BF90AF909F9013
S11340708F907F906F90089585E084BD81E0809358
S11340806E0008951F920F920FB60F9211242F9372
S11340903F934F935F936F937F938F939F93AF93CC
S11340A02091B3043091B4044091B5045091B60406
S11340B06091B7047091B8048091B9049091BA04E6
S11340C0A0E131D02093B3043093B4044093B504F9
S11340D05093B6046093B7047093B8048093B90402
S11340E09093BA0415BAAF919F918F917F916F917C
S11340F05F914F913F912F910F900FBE0F901F90A2
S11341001895EE0FFF1F0024001C0BBE0790F691BC
S1134110E02D09942A0D3B1D4C1D5D1D6E1D7F1D58
S1134120801F911F08950024A7FD00942A0F301DBD
S1134130401D501D601D701D801D901D08952A1581
S11341403B054C055D056E057F05800791070895C5
S1134150CF93DF938230910510F482E090E0E091F8
S11341609F0EF091A00E20E030E0C0E0D0E0309748
S113417011F14081518148175907C0F04817590778
S113418061F482819381209719F09B838A832BC0E9
S11341909093A00E80939F0E26C02115310519F02F
S11341A04217530718F49A01BE01DF01EF010280A0
S11341B0F381E02DDCCF2115310509F1281B390BE2
S11341C02430310590F412968D919C9113976115CA
S11341D0710521F0FB019383828304C09093A00EA8
S11341E080939F0EFD01329644C0FD01E20FF31F40
S11341F081939193225031092D933C933AC020919D
S11342009D0E30919E0E232B41F42091020130919A
S1134210030130939E0E20939D0E20910001309156
S113422001012115310541F42DB73EB74091040138
S113423050910501241B350BE0919D0EF0919E0ECB
S1134240E217F307A0F42E1B3F0B2817390778F069
S1134250AC014E5F5F4F2417350748F04E0F5F1FC8
S113426050939E0E40939D0E8193919302C0E0E083
S1134270F0E0CF01DF91CF9108950F931F93CF9377
S1134280DF93009709F48CC0FC01329713821282E9
S113429000919F0E1091A00E0115110581F420814B
S11342A03181820F931F20919D0E30919E0E28170D
S11342B0390779F5F0939E0EE0939D0E71C0D801F5
S11342C040E050E0AE17BF0750F412962D913C9198
S11342D01397AD012115310509F1D901F3CF9D01E2
S11342E0DA013383228360817181860F971F8217DD
S11342F0930769F4EC0128813981260F371F2E5F5B
S11343003F4F318320838A819B8193838283452B12
S113431029F4F093A00EE0939F0E42C01396FC93F1
S1134320EE931297ED01499159919E01240F351F87
S1134330E217F30771F480819181840F951F02962F
S113434011969C938E938281938113969C938E9362
S11343501297E0E0F0E0D80112968D919C911397AA
S1134360009719F0F8018C01F6CF8D919C9198017A
S11343702E5F3F4F820F931F20919D0E30919E0E12
S11343802817390769F4309729F41092A00E109277
S11343909F0E02C01382128210939E0E00939D0EF4
S11343A0DF91CF911F910F910895FB01DC0102C0B1
S11343B001900D9241505040D8F708950F931F93E8
S11343C0CF93DF93E091A30EF091A40E238121FFFC
S11343D01BC08C01D0E0C0E0F80181918F01609195
S11343E0A30E7091A40EDB011896ED91FC91199720
S11343F0882331F00995892B79F3DFEFCFEFECCFE8
S11344008AE00995892B19F08FEF9FEF02C08D2F59
S11344109C2FDF91CF911F910F910895F894FFCFB6
S11344200000A70E20000000000200000000C301ED
S113443000000000FF007D003000010000007D004E
S11344403900010000007D1039000A0000007D11D0
S11344503900020000007D5033006A0900007D50DD
S113446035006A0900007D623900F40100007D21F5
S11344703200204E00007D233200204E00007D21BA
S11344803300701700007D233300701700007D0493
S11344903000010000007D043000000000007D03B6
S11344A03000030000007D80330040420F007D8116
S11344B0330040420F007D143100000000007D10E5
S11344C03100000000007D6A3900000000007D0218
S11344D03000000000007D5033004A0900007D5088
S11344E035004A0900007D623900D00700007D21B3
S11344F03200D00700007D233200D00700007D0089
S11345003000010000007D033000070000007D3A08
S11345103700E80300007D003300A00F00007D6237
S11345203700000000007E003000010000007E0320
S11345303000070000007E3A3700E80300007E00E8
S11345403300A00F00007E623700000000007D03EE
S11345503000030000007D80330040420F007D8165
S1134560330040420F007D003300000000007E0352
S11345703000030000007E80330040420F007E8143
S1134580330040420F007E003300000000007C0036
S11345903000010000007C003900010000007C10A4
S11345A039000A0000007C113900020000007C5030
S11345B033004A0900007C5035004A0900007C623F
S11345C039000A0000007C043000010000007C2156
S11345D03200102700007C233200102700007F00E7
S11345E03000010000007F003900010000007F104E
S11345F03900080000007F213200102700007F23CB
S11346003200102700007F213300701700007F2341
S11346103300701700007F5033006A0900007F6286
S11346203900001000007F043000010000007C030A
S11346303000030000007C803300A08601007C81F0
S11346403300A08601007F033000030000007F8058
S1134650330040420F007F81330040420F007F034C
S11346603000070000007F3A3700E80300007F00B5
S11346703300E80300007F623700000000007F0081
S11346803000040000007F553000300100007F56E8
S11346903000320100007C143100000000007F145F
S11346A03100000000007C103100000000007F1089
S11346B03100000000007C6A3900000000007F6ABD
S11346C03900000000007F203100000000007C0061
S11346D03900000000007C013900810000007E00E8
S11346E03000010000007E003900010000007E104F
S11346F039000A0000007E113900020000007E50DB
S113470033006A0900007E5035006A0900007E62A9
S11347103900F40100007E213200204E00007E2387
S11347203200204E00007E213300701700007E23EB
S11347303300701700007E043000010000007E0486
S11347403000000000007E033000030000007E8083
S1134750330040420F007E81330040420F007E143C
S11347603100000000007E103100000000007E6A6D
S11347703900000000007E023000000000007E626C
S11347803900D00700007E213200D00700007E23CC
S11347903200D0070000303132333435363700531D
S11147A0746172747570200D00476F200D0057
S9030000FC
